:020000022000DC
:1070000000000420757302005D7302005F730200CC
:1070100061730200637302006573020000000000E8
:107020000000000000000000000000006773020084
:1070300069730200000000006B7302006D730200B0
:10704000519B02006F730200F19F02006F730200F8
:107050006F7302006F730200759E02006F7302006F
:107060006F7302006F7302006F7302006F73020090
:107070006F7302006F7302006F7302006F73020080
:107080006F730200D98902006F7302006F730200F0
:107090006F7302006F730200E9E102006F73020078
:1070A0006F7302006F7302006F7302006F73020050
:1070B0006F7302006F730200000000000000000008
:1070C0006F7302006F7302006F7302006F73020030
:1070D0006F7302006F7302006F7302006F73020020
:1070E0006F7302006F7302006F73020000000000F4
:1070F000000000006F730200000000006F730200C8
:10710000000000000000000000000000000000007F
:10711000000000000000000000000000000000006F
:10712000000000000000000000000000000000005F
:10713000000000000000000000000000000000004F
:10714000000000000000000000000000000000003F
:10715000000000000000000000000000000000002F
:10716000000000000000000000000000000000001F
:10717000000000000000000000000000000000000F
:1071800000000000000000000000000000000000FF
:1071900000000000000000000000000000000000EF
:1071A00000000000000000000000000000000000DF
:1071B00000000000000000000000000000000000CF
:1071C00000000000000000000000000000000000BF
:1071D00000000000000000000000000000000000AF
:1071E000000000000000000000000000000000009F
:1071F000000000000000000000000000000000008F
:10720000354936480A1A02D0072291438D4634493F
:1072100034480A1A06D00722914381F309880222D2
:1072200082F3148830483149314A00F044F831483B
:107230003149324A00F03FF831483249324A00F0D1
:107240003AF832483249334A00F035F83248334987
:10725000334A00F030F833483349344A00F02BF811
:1072600033483449344A00F026F83448344900227F
:1072700000F02CF833483449002200F027F8334856
:107280003349091A082902DB002202604160314AB1
:1072900090471F481F49884205D00268043003B454
:1072A000904703BCF7E700208646EC46002000210B
:1072B000294A9047FEE7884207D0521A05D0037842
:1072C00001300B700131013AF9D17047884202D088
:1072D00002700130FAE770470000042000E003204C
:1072E00000000420000004200C090300703100207D
:1072F00040380020D0730200D073020078EF020003
:107300000C0903007031002070310020E0F0020011
:10731000E0F00200E0F00200E0F00200E0F0020025
:10732000E0F00200E0F00200E0F002000C090300CF
:10733000DC0F030040380020403800204038002097
:107340000C4D00200C4D00200C4D00200C4D002059
:107350000C6D00209D73020045B70200FEE7FEE7BA
:10736000FEE7FEE7FEE7FEE7FEE7FEE7FEE7FEE7F5
:1073700000F002B8FFF7FCBF0F484FF00701884349
:1073800085460E4880470E48016841F4700101604F
:10739000BFF34F8FBFF36F8FFFF732BF09480A4922
:1073A0000A4A884207D0521A05D0037801300B7080
:1073B0000131013AF9D170470000042051950200D3
:1073C00088ED00E0E0F00200703100207031002014
:1073D0007047000007B5044B0093044A402300F0B7
:1073E00032F803B05DF804FBF1730200413800206D
:1073F0002DE9F84388461446B2B10F4B0F4E0325D2
:10740000002743F00109224608EB0701002004F0A1
:1074100085FB0744241A48B933782BB14FF47A40DE
:10742000C847013D02D13570BDE8F88301233370B0
:10743000002CE8D1F8E700BFE0F00200403800205F
:10744000704704F09BBBF0B595B01D461646084644
:107450000C4601F053FE1A9B0D93CDE908650025FB
:107460002B46082205A920460A958DF82C500C952C
:1074700001F060FE079B0293069B03939DF8143076
:107480008DF8115003F00302012A1DD1BDF814201C
:10749000059DC3F3C203C2F383168DF81030B2000A
:1074A00008230EA9204601F045FEC5F3952508AB3B
:1074B0000093324602AB0EA9284600F051FB20464D
:1074C00001F020FE15B0F0BD022AF8D1BDF816502B
:1074D000C3F3C203C5F389158DF810300827082DB2
:1074E0002E4628BF08263B4632460EA9204601F00C
:1074F00021FEAD1B08AB02AA31460EA8374400F0AE
:1075000093FB002DEBD1DAE708B5FFF79AFF0448AB
:10751000042100F08FFA034B01225A7108BD00BF0D
:10752000D0F0020070310020037813F0040216D06E
:1075300003F00303012B03D0022B09D00120704775
:107540000A6800880232C0F3831002440A60F5E73B
:107550000B684288023303EB92130B60EEE7104690
:10756000704700002DE9F04FDFF81CA187B00F46EF
:1075700000230446861C0DF1070015468DF80730E0
:1075800001F0BCF8DAF804203A60DAF8083003F5C4
:1075900080739B1A0AF21C470AF583690AF21448A1
:1075A000B3421AD30020002D69D004F00F039B01D1
:1075B00043F0050363F30F00DAF80430DAB2033264
:1075C00033444AF822009DF80700CAF8043001F05D
:1075D000B9F8012007B0BDE8F08F0121384601F06D
:1075E000BCFA484601F0D1FA404601F0CEFADAF88A
:1075F00008000290C0B203300AEB800002A9FFF736
:1076000093FF029B30BBDAB20AEB8202D16803918E
:107610009A1C0133DBB20AEB83030292D3F80CB05D
:1076200001F00303012B22D0022B15D083464046E4
:1076300001F0AEFA10B1029BCAF80830594638463C
:1076400001F08BFADAF80830DAF8042003F58073D9
:107650009B1AA5E7D8B2CEE7BDF80E30C3F3891365
:1076600003334FEA1B4B02EB93030293DFE7BDF8B2
:107670000C30C3F383134FEA1B4B1344F5E7A40507
:1076800044F0060098E700BF54390020064B074835
:1076900010B500221A7001F0EAFC044610B9044843
:1076A00001F0A3FE204610BD5439002024F0020052
:1076B0001CF1020030B50A4C71B10A4A0A49121B8A
:1076C000D20800239A4201D1002030BD31F8235066
:1076D000854202D00133F5E7034654F83300F4E75E
:1076E00084EF020024F0020070310020094B0139C0
:1076F00003EBC000032909D8DFE801F00A02040601
:107700000420704700797047407970470020704727
:107710000220704784EF020070470000034BD3E95A
:107720000130C31A58425841704700BF54390020F5
:107730002DE9F04186B0FFF7F1FF0546002840F043
:10774000ED80774CC4F81804BFF34F8FA368029301
:10775000DBB2033304EB830002A9FFF7E5FE029BD3
:1077600018B1D4F81824002A5AD0DAB2991C01337F
:1077700004EB8202DBB204EB8303D268DB68049380
:1077800002F00303022B0392029154D1BDF80E3094
:107790006448C3F38917502F3E4628BF502606F190
:1077A000080166F38F13C1F30901ADF80E3001F043
:1077B00076FC0546002800F09C8001F09FFC002329
:1077C000082203A9284601F0ABFC0299CB43DBB2A7
:1077D0000133C9B20331B6EB830F4FEA830204EBE6
:1077E000810125D95FFA82F80823A6EB080628460E
:1077F00001F096FCF6B208F108034B4903F0FC03D4
:107800003246284601F08CFC029B033703EB9707B6
:107810000297D4F81834002B43D1D4F8106453E005
:1078200062689A4294D8A260284606B0BDE8F0810A
:1078300008233246E5E7012B5BD1BDF80C3039480F
:10784000C3F38311062928BF062161F3891302318E
:1078500001F00F018900ADF80C3001F020FC054665
:10786000002846D001F04AFC0023082203A928463C
:1078700001F056FC0026BDF80C20C2F38312B300C1
:10788000964203F10803C4D202994A1CC9B20331DB
:10789000029204EB81010422284601F041FC0136EA
:1078A000E9E7284601F02EFCFFF738FF80F00100E1
:1078B000C5B2B9E7F3685B7923B1336829461B6821
:1078C00030469847F3681E68002EF3D1284601F031
:1078D00019FC0DF107008DF8076000F00FFFD4F8D8
:1078E00018340BB9029BA3609DF8070000F02AFF33
:1078F000DAE7D4F8104454B90C4B0D480D49C01ABE
:10790000C008000440F0020000F05EF8CCE72368F5
:1079100020469B689847E3681C68ECE7002583E7EE
:107920005439002024F002006039002084EF020066
:10793000ACEF020004F102002DE9F34704460E46C5
:10794000924601A9012218469946FFF70BFE1C4FEB
:1079500010B3019D4FF00008AA1CC84508EB0201B6
:1079600025D11848002101F0C9F880F31000000467
:1079700040EA1440E4006B1C04F03804DBB2EDB2C2
:1079800044F0010407EB8303033544EA881444EA16
:107990008624D86047F825403B781BB1FFF7C8FE26
:1079A0000028FBD1FFF7B8FE02B0BDE8F087C9B2EE
:1079B00007EB81015AF82830CB6008F10108CCE7C9
:1079C00054390020703D002000231A46FFF7B4BF51
:1079D00007B50123019201AAFFF7AEFF03B05DF8DE
:1079E00004FB07B5CDE9002302236A46FFF7A4FF95
:1079F00003B05DF804FB1FB5CDE90123069B03939B
:107A000001AA0323FFF798FF05B05DF804FB7FB5DB
:107A1000CDE90023089B0293099B03930A9B0493DF
:107A20000B9B05936A460623FFF786FF07B05DF8B8
:107A300004FB000030B50F4CD4F81024034600209E
:107A4000114631B9D96808714AB9C4F810340A60CE
:107A500030BDC9680D79854206D00968F1E7D26862
:107A600014680C601360F3E701300A28E8D14FF086
:107A7000FF30EDE75439002038B5084B0125D3F825
:107A800010441D7004B938BDE3685D712368204659
:107A90005B689847E3681C68F4E700BF543900202E
:107AA00030B5C38885B004460D4633B1144A009200
:107AB0001449154A284601F0CEF8217A05291DD02F
:107AC000637A4BB1A088FFF711FE104B104953F8B1
:107AD0002020284601F0BFF8227A0E4BA08853F8E8
:107AE000222003920021FFF7E5FD039A0A4903468D
:107AF000284605B0BDE8304001F0ADB805B030BD56
:107B000048F1020030F1020028F10200B4F1020055
:107B10004DF10200D8F1020050F1020007B5034612
:107B20000846197A052911D05B7A2BB1094A0A490E
:107B3000019001F090F801980849019001F08BF84C
:107B4000019803B05DF804EB01F07AB8002AF8D090
:107B5000F2E700BF48F102004DF10200F9FF020018
:107B60002DE9F04385B01F460C9D002395F80C903D
:107B70002B7306460C46904629463846FFF790FF81
:107B8000B8F1060F09D8DFE808F00412181F2833EF
:107B900040003146284601F05EF80022294638466A
:107BA000FFF7BCFF85F80C9005B0BDE8F0832268B4
:107BB0003146284601F04FF8EFE7D4E9002331467B
:107BC000284601F048F8E8E7A36800933146D4E975
:107BD0000023284601F03FF8DFE7E3680193A3683C
:107BE00000933146D4E90023284601F034F8D4E765
:107BF00023690293E3680193A36800933146D4E9B3
:107C00000023284601F027F8C7E763690393236937
:107C10000293E3680193A36800933146D4E90023FB
:107C2000284601F018F8B8E708292DE9F74F8046F3
:107C30000E4617461C463CD8002593F80C901D7341
:107C400019461046FFF72CFFDFF888A0DFF888B050
:107C5000AE4231D918F805205946204600F0FBFF06
:107C60000135082DF4D11949194DDFF870A02046CF
:107C700000F0F1FF4FF0000B5E4522D918F80B2001
:107C80007E2A05D81046019206F01EFD019A00B921
:107C90002E225146204600F0DEFF0BF1010BBBF116
:107CA000080FE9D1012221463846FFF737FF84F853
:107CB0000C9003B0BDE8F08F5146204600F0CBFF9A
:107CC000CEE72946204600F0C6FFE6E764F1020051
:107CD00062F1020060F102005AF1020066F1020056
:107CE000C30710B507D4F023054A4008145C2340AD
:107CF0001943115410BD0901C9B20F23F4E700BFA5
:107D0000203E002030B5094B1C78094B1968002330
:107D10009C4202DC0022104630BD11F833508542EF
:107D200001EBC302F7D00133F2E700BF0C3E0020A5
:107D3000403E002013B504460191FFF7E3FF38B140
:107D400043682BB10199204602B0BDE810401847A6
:107D500002B010BD034B044819680022490800F026
:107D600087BA00BF103E00207831002010B5C0B2A5
:107D7000FFF7C8FF0446007802F06EF863785A1ED9
:107D800053425341834208D1044BD3E900231343A8
:107D900003D1BDE81040FFF7DDBF10BD183E002045
:107DA00037B54308374AD35CC2074CBF1B0903F001
:107DB0000F0304460D46042B25D8DFE803F0032605
:107DC0002F3C4000F9B10121FFF78AFF00230DF19C
:107DD00007008DF8073000F091FC0120A4F120038A
:107DE000C4F12001284A20FA01F100FA03F30B4301
:107DF000A040D2E9004120430B43C2E900039DF8B3
:107E0000070000F09FFC03B030BD002918BF02211D
:107E1000204603B0BDE83040FFF762BF49B10321FF
:107E2000FFF75EFF0121204603B0BDE83040FFF7B9
:107E300081BF0121ECE70029E5D10421E8E709B180
:107E40000321E5E7FFF74CFF29462046FFF772FFC5
:107E50000DF107008DF8075000F050FC0120A4F14F
:107E60002003C4F12001084A20FA01F100FA03F3CB
:107E70000B43A040D2E9004124EA000021EA0303B9
:107E8000BBE700BF203E0020183E00202DE9F04156
:107E9000124E134F00243378A34208DC114BD3E970
:107EA0000023134318D0BDE8F041FFF753BF3D68EE
:107EB00005EBC40815F8340001F0CEFF98F8013046
:107EC0005A1E53425341181A4142414115F8340099
:107ED000FFF766FF0134DEE7BDE8F0810C3E0020CD
:107EE000403E0020183E0020092AF7B505460C4602
:107EF00016463ED901F0D8FEE8B11F4B1F481D6061
:107F00001F4B204F1C70204B002120221E6006F0CA
:107F10008FFC1E4B00200021C3E90001013CE4B2AC
:107F20000326FF2C0DD11A4A1A48002103B0BDE8E0
:107F3000F04000F08BB901F071FE0028DDD003B0F5
:107F4000F0BD9DF8063015F834008DF8046005EB9F
:107F5000C40223F007038DF8063001A993788DF849
:107F600005303A4601F0AAFE013CE4B20028D8D020
:107F7000E5E70720E3E700BF403E0020203E002069
:107F80000C3E00206D7D0200103E0020183E0020B7
:107F90008D7E0200F8F1020070B5084D084E0024F5
:107FA0002B789C4201D3002070BD3368012113F867
:107FB000340001F003FF0134F2E700BF0C3E002063
:107FC000403E00201FB50021039001AA44F20100A9
:107FD000CDE9011100F004F805B05DF804FB0000E4
:107FE00038B572B6FFF748FDFFF7A2FB0028FBD1BA
:107FF000104B114C114D1249E41AE408240444F0CA
:108000000100FFF7E1FCD5F8F030DB0700D500BE3A
:108010000C4944F00200FFF7D7FCBFF34F8FEA682A
:10802000094B02F4E0621343EB60BFF34F8F00BFD4
:10803000FDE700BF84EF0200ACEF020000ED00E0BE
:10804000FCF1020008F202000400FA0549B152B145
:10805000531E1A4007D1826001608380C2601046BF
:1080600070470E2070470920704710B58468C268B9
:108070008388121B934208D3C26813400268D1540C
:10808000C3680133C360002010BD0420FCE7826890
:10809000C3689A420AD08268838813400268D35C1E
:1080A0000B708368013383600020704705207047A0
:1080B00010B5D0E90243D1E90202A04272EB0303FA
:1080C0002CBF0120002010BD08B50A4800F06DFC4F
:1080D000094AD2E90031C018084BD3E9002341F125
:1080E0000001904271EB030303D210F1807041F163
:1080F000000108BD98310020483E0020C03E00200D
:1081000037B505460C460A4801A900F082FC60B16B
:108110000570446001A9064800F0A5FC18B10548A7
:1081200000F048FC002003B030BD0420FBE700BF96
:10813000AC3E002098310020294B73B51E780446D0
:108140001EB90026304602B070BD0028F9D0FFF7F6
:10815000BBFFD4E902239042994139D300230DF1AA
:1081600007008DF8073000F0C9FA23692BB94FF0EA
:10817000FF324FF0FF33C4E902239DF8070000F0FF
:10818000E1FAD4E90530984700250DF107008DF894
:10819000075000F0B3FA2369C3B1D4E90212B2F177
:1081A000FF3F08BFB1F1FF3F05D05B1842F100026D
:1081B000C4E9023235469DF8070000F0C3FA002DED
:1081C000BFD00848214601F02FF9BBE71D46F2E772
:1081D000B3F1FF3F08BFB2F1FF3FB2D0F1E700BFFC
:1081E000503E002024F2020013B5114B11491868CB
:1081F000019008231048582200F0F8FB044698B973
:108200000E4A0F4801A900F0C1FA044660B90C48B3
:10821000012100F0ADFB01230A4A0948194600F08C
:108220000FFB094B01221A70204602B010BD00BF9F
:1082300020F20200543E0020AC3E002029830200C0
:1082400098310020FFFF7F00503E002030B56AB11A
:1082500003684FF0FF344FF0FF355A614A1E514218
:10826000C3E9024551411961002030BD0720FCE7F8
:10827000F7B5044600250DF1070017460E468DF8A8
:10828000075000F03BFAD4E90223B3F1FF3F08BFE7
:10829000B2F1FF3F07D1FFF717FF301841F100019E
:1082A000C4E9020101259DF8070000F04BFA55B121
:1082B0002369A76103B126612146002003B0BDE810
:1082C000F040FFF71DBF284603B0F0BD37B50546A7
:1082D00000240DF107008DF8074000F00FFAD5E9F2
:1082E0000223B3F1FF3F08BFB2F1FF3F1FBF4FF0C2
:1082F000FF324FF0FF33C5E9022301249DF8070048
:1083000000F020FA34B12946012003B0BDE8304026
:10831000FFF7F6BE204603B030BD0000014800F074
:1083200044BB00BF983100202DE9F743064600F01A
:1083300027FB40B1624AD2E9003113F1807341F169
:108340000001C2E900310021304600F028FB38B1BD
:108350005C4C236823B12068FFF7EEFE0023236006
:108360000121304600F01BFB20B1FFF7ADFE564B5C
:10837000C3E900015548534C01A900F084FB4FF0BC
:10838000FF384FF0FF39A0B9DFF844814D4D40462A
:1083900001F060F8002800F08580D0E90223B3F1F5
:1083A000FF3F08BFB2F1FF3F32D1404601F04CF829
:1083B000EDE70378012B20D0022B08D1444D28464D
:1083C00001F042F8002877D0C0E90289F7E75BB9ED
:1083D0004168D1E90223B3F1FF3F08BFB2F1FF3F8B
:1083E00002D03B4801F020F801A9384800F076FBA4
:1083F00001A9364800F047FBC5E741682368994268
:1084000002D100232360EFE7314801F026F8EBE7C3
:10841000296891B12968D1E9020182428B412FD2AA
:108420002B68D3E90223B3F1FF3F08BFB2F1FF3F4E
:1084300003D02968404600F0F7FF404601F004F8F9
:10844000D0E902490746FFF73FFE201A69EB010910
:10845000012879F1000318DBB0F5350F13D3FFF7CE
:108460005DFF1C4A02441C484FF49603002100F0B3
:1084700007FA90B92B6813B9304600F0D9F92F608C
:1084800003B0BDE8F0832246EDE71348002100F079
:108490007CFA3846FFF750FE01E00D28F9D00023A2
:1084A0002B6074E7074B1B68002BE9D1304603B003
:1084B000BDE8F04300F0C0B9084B01221A7093E701
:1084C000483E0020C83E0020C03E0020AC3E0020B8
:1084D00024F20200FFFFB40098310020503E00203B
:1084E0000648074A03780749D35C012213B10430D8
:1084F00002F014BA0C3001F0BDBF00BFA031002063
:10850000443F0020F43E00200648074A037807490C
:10851000D35C012213B1043002F0B2B90C3001F087
:1085200059BF00BFA0310020443F0020F53E00208D
:1085300037B50578012D0DD0022D30D075B91F4902
:108540001F48FFF7A4FD002834D103B0BDE8304038
:10855000FFF7DABF037A1BB9FFF7C2FF03B030BDE4
:108560004368184C19782046FFF77FFD80B18DF8DD
:1085700000500190144B68461B689847A168E36857
:10858000A2885B1A9A42E7D2104B01221A70E5E7E3
:10859000A268E3689A42F1D08DF80000EAE7C36868
:1085A0008DF800500193FFF79BFF074B68461B684F
:1085B0009847D3E703238DF80030F6E7F53E002017
:1085C000E43E0020D03E0020CC3E0020E03E0020D3
:1085D000F0B51F46234B89B004461A600D460029AA
:1085E0003DD08A8820480968FFF730FD002834D143
:1085F000AA89A9681D48FFF729FD00282DD11C4E26
:108600000FCE6D460FC596E80F0085E80F00636931
:108610000693237C174A18488DF81C70003B18BF3E
:1086200001238DF81430637C002B14BF0E2300232C
:108630008DF81530E3680293A368039323680193D0
:1086400069466368009301F00BFA30B90B4B187060
:108650002368013301D0FFF743FF09B0F0BD0720C5
:10866000FBE700BFCC3E0020D03E0020E43E0020CF
:1086700030F2020031850200A0310020E03E0020EF
:1086800070B5084D014608482E78FFF700FD0446F6
:1086900036B100232B70FFF723FF08B1FFF792FCE0
:1086A000204670BDE03E0020D03E002010B50146BF
:1086B0000E48FFF7DAFC0446A8B90D480D4A0378C6
:1086C000D35C63B1043002F0CFF860B90A490748BF
:1086D000FFF7DDFC38B9BDE81040FFF715BF0C30DF
:1086E00001F06CFEF1E7204610BD00BFE43E002023
:1086F000A0310020443F0020F53E002070B5EFF38C
:10870000108672B60C4A946801239CB993600B4B97
:108710000B4DD3F8801029401160C3F88050D3F876
:10872000841051604FF0FF32C3F88420047006B902
:1087300062B670BD0370FAE7F83E002000E100E089
:10874000FC06FFBD084B9A6810B55AB150B9EFF35B
:10875000108172B6054A1C6814605C6854609860A9
:1087600001B962B610BD00BFF83E002000E100E094
:10877000435882B03BB10023435043580193019BBF
:10878000012002B070471846FBE70000F8B5204B07
:108790004479204E43F824201F4A204B06EBC404A2
:1087A0009B1A2279DB081B0432B143F002001C49FA
:1087B000FFF70AF90820F8BD02680C88C2F80845DE
:1087C00090F904508A7804795201002DD2B219DB55
:1087D00014494F1987F8002301226D0904F01F0482
:1087E00002FA04F441F82540427906EBC201012463
:1087F00046F832000C7143F003000B49FFF7E4F830
:108800000020D8E7094904F00F040A55ECE700BF3F
:108810000C3F0020043F002084EF0200BCEF020068
:1088200050F2020000E100E072F2020014ED00E0FC
:10883000036801221A607047036801225A6070477A
:1088400073B501F15005AD000068ADB24FF480344E
:108850008C400026C0F80843C0F84843465101F553
:10886000A8714559019522F07F42019D40F82120D1
:10887000C0F844430BB1C0F8044302B070BD00001F
:108880002DE9F74F0D4622F07F4402684FF4803700
:1088900005F150068F408046B60002EB8500C2F815
:1088A0004873B6B2C2F80873D2F8041599464FF06F
:1088B000000BD0F84035C0F8401542F806B05B1AFE
:1088C0009259009223F07F43012B009A4FEA850AC8
:1088D0000CD1264B4FF4806043F001039847D8F841
:1088E000003043F806B09B590193019BD8F8001063
:1088F000D1F80465C1F84473A31B23F07F43012B17
:108900001CD11A4B05F5A875013443F0010341F859
:1089100025404FF480609847D8F80030D3F80435EC
:108920009E4209D1D8F800300020C3F84473C3F840
:10893000047303B0BDE8F08F0D20FAE78A44C9F153
:10894000FF13CAF84045D1F80405221A013A22F073
:108950007F4203F57F439342EED3002AE2D10134F4
:10896000CAF84045D1F804359842DAE790F202009F
:1089700003680222C3F8442309B1C3F804237047F3
:1089800000684FF48271FFF7F3BE4FF4803303FAAF
:1089900001F10368C3F84813C3F808137047503156
:1089A0008900006889B2FFF7E3BE0368D3F80405C5
:1089B0007047000090F90430002B09DB5A090121AF
:1089C00003F01F0301FA03F34032024941F8223059
:1089D000704700BF00E100E0024B034A1B681068CB
:1089E000184700BF0C3F0020043F002010B561B1C4
:1089F000B2FBF3F403FB1424A4B244B9C0E900149D
:108A000084608281C381204610BD0E20FCE70920CE
:108A1000FAE737B550E8013F9DB2C48925448489FF
:108A2000A54228BF2D1B0489A54202BFBFF32F8F8B
:108A3000002207E0C5EA030540E80154002CE9D113
:108A40004FF001028DF803200193019A0A609DF80E
:108A5000031001F0FF0321B1006810FA82F003B0A7
:108A600030BD1846FBE70A884B889A4209D150E886
:108A7000012FC2EA024240E80123002BF7D1012076
:108A800070470020704737B550E8023F1FFAA3F542
:108A9000C488A54202BFBFF32F8F00220DE0C48916
:108AA00025448489A54228BF2D1BC3EA054540E81B
:108AB0000254002CE8D14FF001028DF803200193FD
:108AC000019A0A609DF8031001F0FF0321B10068CC
:108AD00000EB124003B030BD1846FBE70A884B8814
:108AE0009A4209D150E8022FC2EA224240E802230A
:108AF000002BF7D1012070470020704710B50346C6
:108B000053E8000F0A4643E8002494F0000FF7D121
:108B100010BD10B5034653E8002F42EA010043E8B8
:108B2000000494F0000FF6D110BD10B5034653E8D1
:108B3000000F00EA010243E8002494F0000FF6D190
:108B400010BD10B5034653E8002F02EA010043E8C8
:108B5000000494F0000FF6D110BD10B5034653E8A1
:108B6000002F02EB010043E8000494F0000FF6D15F
:108B700010BD10B5034653E8002FA2EB010043E8F7
:108B8000000494F0000FF6D110BD0121FFF7C1BF22
:108B90000021FFF7CABF10B590B1D0E901230168E9
:108BA0009B1ADBB20A60013BDBB2FF2B026802D1E9
:108BB0000020107110BD11684C1C14600B70F2E79E
:108BC0000E20F7E737B5054600240DF107008DF8B4
:108BD0000740FFF793FD2A686B68116899420ED928
:108BE000481E106011F8013CEC68298A01FB03441F
:108BF000AB6811791B1ADBB2994238BF13719DF82B
:108C00000700FFF79FFD204603B030BD37B505468E
:108C100000230DF107000C468DF80730FFF76EFDBD
:108C20002A681368591C1160E968641A298AB4FB20
:108C3000F1F41C709DF80700FFF784FD03B030BD10
:108C4000826810B504462AB14369016800699847F3
:108C50000023A36010BD0EB403B5039921B104AB8A
:108C600001AA019300F076F802B05DF804EB03B0BE
:108C700070470A2938B504460D4602D10D21FFF789
:108C8000F8FFA3682268591CA160D554D4E90132C9
:108C90009A4204D32046BDE83840FFF7D1BF38BD23
:108CA0002DE9F84F9846DDE90A43154682460F46FE
:108CB0000A464FF00109AA420FD2C14538BFC1464A
:108CC00013F0010B01D16CB900240126B8F1010F9A
:108CD0001BD908F1FF386E43F8E709F10109B2FB2F
:108CE000F5F2E8E79B070ED5B8F1000F0CBF302670
:108CF0002026A145E9D2013C31465046FFF7B9FF95
:108D0000002CF6D1E0E72026F3E7B7FBF6F39D420F
:108D1000E1D9DFF83C80B7FBF6F3504618F80310B2
:108D200006FB1377FFF7A5FF3346AB42B6FBF5F61C
:108D3000F1D2BBF1000F02D00CB1A14501D3BDE8C7
:108D4000F88F20215046013CFFF793FFF4E700BF66
:108D500096F202002DE9F74F05461746884600298E
:108D600000F03E8118F8011B49B92B7B002B00F065
:108D70003781284603B0BDE8F04FFFF761BF2529D2
:108D800040F0B780002698F800302D2B424608F1BD
:108D9000010823D0302B24D02B2B25D000242A2BC4
:108DA00002F1010123D13B681A1D1B683A601C4483
:108DB0000A4613782E2B26D101324FF0000A1046B6
:108DC00010F8011BA1F1300CBCF1090F1DD80A23CA
:108DD00003FB0A13A3F1300A0246F0E746F001064E
:108DE000D1E746F00206CEE746F00406CBE711F8DD
:108DF000013CA3F130000928DBD80A2202FB04342D
:108E0000303C0A46CBE74FF0000A12F8011B01F094
:108E1000FB0068289046F8D0782909D86F290CD82B
:108E2000632962D022D8252963D0582900F0888090
:108E300098F80030002B95D197E770390829F7D8BA
:108E400001A353F821F000BFBB8F0200318E020056
:108E5000318E0200518F0200318E02002F8F0200EE
:108E6000318E0200318E0200418F0200642901D050
:108E70006929DDD13A68D2F80090111D89EAE972BA
:108E80003960A2EBE9724FF0010B092A35DCD345BA
:108E900038BFD3462CB1B9F1000F01DB720700D502
:108EA000013CB30702D5BAF1000F03D0F00701D49B
:108EB0004CBB0024B9F1000F2DDAC9F100092D21B6
:108EC0002846FFF7D6FE06F00302022A04D1BAF1C3
:108ED000000F01D11CBB0024CDE9004653460A22F5
:108EE00049462846FFF7DCFEA2E73B681A1D1978C1
:108EF0003A602846FFF7BDFE9AE70A230BF1010B03
:108F0000B2FBF3F2C1E7A345D4D220212846013CAD
:108F1000FFF7AFFECCE77107D5D52B21D0E7A345EE
:108F2000DAD230212846013CFFF7A3FED2E73968A8
:108F3000CDE900460A1D3A6053460A220968D0E787
:108F400039680A1D3A60CDE9004653461022F5E71C
:108F50003B681A1D3A6016F00106D3F8009024D140
:108F6000B9F1000F03D0484605F0B7FC0646B442FD
:108F70001DD809F1FF3919F8011F00293FF458AF36
:108F80002846FFF776FEF6E728460136FFF771FE22
:108F900019F806100029F7D1A642BFF449AF2021E5
:108FA0002846013CFFF765FEF6E70026F0E72021A2
:108FB0002846013CFFF75DFED9E73B681A1D3A6081
:108FC000302128461C68FFF754FE78212846FFF719
:108FD00050FE00220823CDE900322146102280E70E
:108FE00003B0BDE8F08F00BF2DE9F84FB0F806A040
:108FF0004579D2F800B09DF828900AFB05F5043DAC
:1090000088460BEB0301A94203F1040488BFA5EBDA
:10901000030BB4FBFAF607460AFB1644C2F800B08D
:109020004EB9AAEB04055D4528BF5D46BBF1000FB4
:1090300004D1BDE8F88F3F68013EF1E7043408EB46
:1090400006003C442A46B9F1000F0DD02146ABEB97
:10905000050B05F0C4FBDA452E443F6855464FF03A
:10906000000428BF5D46E1E701462046EFE7FFF731
:1090700092BDF8B546790146721E0546002393421B
:109080002D6803D30024A64202D8F8BD0133F6E7C9
:109090000F682846FFF7BAFD01343946F3E72DE99A
:1090A000F843068ACD1C0746FFF78CFD043E354485
:1090B0000446B5FBF6F5F0B14FF48073EDB2838052
:1090C000C680013D076081464FF00008A84512D2D6
:1090D0003846FFF777FD064648B16379013363717F
:1090E00008F10108C9F8000007608146EEE7204654
:1090F000FFF7BFFF34462046BDE8F8830121043066
:10910000FFF72BBD10B5012104460430FFF731FDF8
:10911000C0B220B92046BDE81040FFF7AABF10BD7D
:109120001FB503920022009203AAFFF75DFF05B06E
:109130005DF804FB1FB503920122009203AAFFF71A
:1091400053FF05B05DF804FB33DF704741DF704724
:10915000064B10B500241C70054B1C60BFF35F8FDD
:109160000449054800F04AF9204610BD193F002087
:109170001C3F0020B0F20200103F002007B5002382
:109180000DF107008DF80730FFF7B8FAF1EE103A4D
:1091900023F09F03E1EE103ABFF35F8F0A4B4022AA
:1091A000C3F884219DF80700FFF7CCFA05F002F818
:1091B00020B103B05DF804EBFFF7C8BF20BF40BF8C
:1091C00020BF03B05DF804FB00E100E070B5244D62
:1091D000044601212846FFF791FCBFF35F8F38B9A1
:1091E000042C0AD01F4B1A781AB1BFF35F8F286086
:1091F00070BD1D4A147001221A701C4C1A4E63680F
:10920000BBB9FEF739FCFEF793FA0028FBD1164BE9
:109210001B78023B012B15D8BFF34F8F1449154B18
:10922000CA6802F4E0621343CB60BFF34F8F00BF04
:10923000FDE71B68307898470028D6D0204600F01C
:10924000E7F8DCE704F0B6FF08B1FFF77DFF4FF069
:1092500080430122C3F80025BFF34F8F20BFFDE7F5
:109260001C3F0020193F0020183F0020103F002025
:1092700000ED00E00400FA050268136852689342AA
:1092800091BFD01A80680130801888BFC01A70471B
:10929000036881681A685B688B4234BF013300231E
:1092A000D31A58425841704773B5002304460DF154
:1092B00007000D468DF80730FFF720FA2046FFF72C
:1092C000E7FF10B1237C002B3BD12368A1685E68C7
:1092D0005A688A4234BF013200225A6028B11A68A3
:1092E0008A4234BF013200221A60E2686368511E6C
:1092F000072920D8DFE801F004101F141F1F1F18D2
:109300002A789A552046FFF7B7FF23689A68824269
:1093100000D29860002415E02A8823F81620F1E78F
:109320002A6843F82620EDE7D5E9000103EBC603E0
:10933000C3E90001E6E7294602FB063005F04FFAD3
:10934000E0E704249DF80700FFF7FCF9204602B08F
:1093500070BD036818685B68C31A5842584170476B
:1093600073B5002305460DF107000C4616468DF82F
:109370000730FFF7C3F92846FFF7EBFF002832D18B
:109380002B6819682EB91A68A868824238BF561C23
:109390001E60EA686B68501E07281ED8DFE800F0E0
:1093A000040E1D121D1D1D165B5C237000249DF80C
:1093B0000700FFF7C7F9204602B070BD33F811303F
:1093C0002380F3E753F821302360EFE703EBC10379
:1093D000D3E90023C4E90023E8E701FB023120467A
:1093E00005F0FDF9E2E70524E1E7836800225A6011
:1093F000C3E904229A60DA601A6070470B684A6811
:109400004360934208BF0023016008BF4360704778
:10941000436843B10268916852680B4493424360C9
:1094200004BF00234360704770B5446806460D468C
:10943000206818B1B3682946984718B923682B608B
:10944000256070BD2468F3E74368186808B10268B6
:109450001A6070474368186870474368186800B915
:109460007047884203D102681A60012070470346A2
:109470000068F4E710B50D49A1F59472914201D846
:1094800000200FE08C1AE30F03EBE4035B1002EB08
:10949000C30452F83330834205D802D204F10802E3
:1094A000ECE7606810BD2146E8E700BFBCF70200AA
:1094B00008B5FFF7DFFF024B002808BF184608BDBC
:1094C0007FF6020010B50446C0B2FFF7EFF8204661
:1094D00010BD01F01F024B090121914000EB8300F8
:1094E000FFF717BB01F01F0301229A404B0900EB65
:1094F0008300D143FFF725BB4B0901F01F0150F852
:109500002300C84000F0010070474FF08053D3F8AB
:109510003001A0F108035842584170474FF0805382
:10952000D3F83021082A06D1D3F83431052B02D8DC
:10953000024AD05C70470020704700BFC2F70200AB
:10954000024AD2F80034002BFBD0704700E0014003
:1095500010B5FFF7DAFF40B14FF080430022C3F8A7
:109560000C21C3F81021C3F83825FFF7CEFF0028DF
:1095700046D04FF08052654BD2F80414C3F8201542
:10958000D2F80814C3F82415D2F80C14C3F828151F
:10959000D2F81014C3F82C15D2F81414C3F83015EF
:1095A000D2F81814C3F83415D2F81C14C3F84015B7
:1095B000D2F82014C3F84415D2F82414C3F848157F
:1095C000D2F82814C3F84C15D2F82C14C3F850154F
:1095D000D2F83014C3F85415D2F83414C3F8601517
:1095E000D2F83814C3F86415D2F83C14C3F86815DF
:1095F000D2F84014C3F86C15D2F84424C3F870258F
:10960000FFF78CFF18B1424B424AC3F88C26FFF794
:1096100085FF18B1404BFB22C3F81825FFF77EFFEA
:1096200070B14FF080414FF08053D1F8E42ED3F861
:10963000583222F00F0203F00F031343C1F8E43E47
:10964000FFF76CFF20B1354B4FF40072C3F8402692
:10965000FFF75BFF48B14FF08043D3F80024D207F7
:1096600044BF6FF00102C3F800242D4AD2F88830BD
:1096700043F47003C2F88830BFF34F8FBFF36F8F8E
:109680004FF08053D3F83021082A0ED1D3F834316B
:10969000052B02D8234AD35C3BB14FF01023D3F8FB
:1096A00008224FF08043C3F858254FF01023D3F819
:1096B0000022002A03DBD3F80432002B22DA1A49F5
:1096C00001234FF01020C1F804351224FFF738FFB2
:1096D000C0F80042FFF734FFC0F80442FFF730FF44
:1096E0000023C1F80435FFF72BFFBFF34F8F0C4960
:1096F0000E4BCA6802F4E0621343CB60BFF34F8F96
:1097000000BFFDE70A4B0B4A1A6010BD00C00040C5
:10971000005000404881030000F0004000900240EB
:1097200000ED00E0BCF7020000E001400400FA0593
:10973000B43100200090D003074B1B5C1F2B8ABF65
:10974000064A4FF0A04203F01F03D2F80405D840A8
:10975000C04300F001007047CCF702000003005046
:10976000074B1B5C1F2B86BF064903F01F034FF0FE
:10977000A041012202FA03F3C1F80C35704700BF83
:10978000CCF7020000030050074B1B5C1F2B86BF69
:10979000064903F01F034FF0A041012202FA03F330
:1097A000C1F80835704700BFCCF702000003005035
:1097B00008B50020FFF7E8FF0120FFF7E5FF0220D2
:1097C000FFF7E2FFBDE808400320FFF7DDBF08B563
:1097D0000020FFF7C5FF0120FFF7C2FF0220FFF7BF
:1097E000BFFFBDE808400320FFF7BABF0A4B185C73
:1097F0001F288ABF094B4FF0A04300F01F00D3F889
:1098000004250121814021EA02000A40C3F808052D
:10981000C3F80C25704700BFCCF7020000030050CE
:10982000074B1B5C1F2B8ABF064A4FF0A04203F078
:109830001F03D2F81005D840C04300F00100704764
:10984000C8F70200000300500B2809D00C2809D0EB
:10985000182809D019280CBF03204FF0FF3070479B
:10986000002070470120704702207047014B185CB0
:10987000704700BFC8F70200C20710B504460CD5F8
:109880004FF0A0430322C3F83427C3F83827C3F8A6
:109890003C27C3F84027FFF78BFFA3070AD54FF0FB
:1098A000A0430C22C3F82C27C3F83027C3F8602745
:1098B000C3F8642710BD000038B5074C051E04F13D
:1098C000080318BF1C4623682BB11A6822605B6826
:1098D00028469847F7E738BD283F002020B9054BB8
:1098E00001225A70FFF7E8BF012802D1014A9070A7
:1098F000F8E77047203F002020B9034B01225A703F
:10990000FFF7DABF704700BF203F002038B50E4C8C
:109910002378B3B90D486360A3602361E36000F06E
:10992000E7F8054604F046FC08B900F0EDF801231D
:109930002370074BD3F800340BB10123A3702846E2
:1099400038BD8525F5E700BF203F0020DD980200E7
:109950000000014037B50D4C00230DF107008DF8D4
:109960000730FEF7CBFEE368013BE360E36833B901
:10997000074BD3F8005415B900F0D8F8A5709DF83E
:109980000700FEF7DFFE03B030BD00BF203F002020
:1099900000000140012813B50CD0032820D038B9AD
:1099A000134B0122C3F88020BFF34F8FBFF36F8F9B
:1099B00002B010BD0F4C00230DF107008DF80730E9
:1099C000FEF79CFE23780BB9FFF7A0FFE3689DF834
:1099D00007000133E3600123A370FEF7B3FEE7E75E
:1099E00000F092F802B0BDE81040FFF7B3BF00BF2F
:1099F00000E100E0203F00201FB503788DF8003023
:109A00004368019383688DF80830C368054A03935F
:109A1000054B684653F8213052F82110984705B09D
:109A20005DF804FB343F00203C3F00201FB5037865
:109A30008DF800304368019383688DF80830C3685F
:109A4000054A0393054B684653F8213052F821101C
:109A5000984705B05DF804FB343F00203C3F0020F0
:109A6000F0B5194B90F800C0DFF86CE043F82C20FB
:109A7000164B16460A6943F82C204B7F0EF80C3023
:109A80000C4607460FCC89B06D460FC594E80F0011
:109A900085E80F003B78CDF810C01EF803304BB1BD
:109AA000002E0B4A694608BF3246381D00F000FE02
:109AB00009B0F0BD002E074A694608BF324607F1DB
:109AC0000C0000F0ABFBF3E73C3F0020343F0020EC
:109AD000F99902002D9A0200443F002000F18040D5
:109AE000002382B0036003680193019B02B07047BA
:109AF000044A137923B901211060918018467047F8
:109B000085207047483F0020074B1A68D20704D4CD
:109B1000C02283F8002301221A604FF08043012203
:109B2000C3F81825704700BF00E100E04FF0804205
:109B300008B50223C2F808334FF48270FFF7CEFF56
:109B40000123D360D2F81834DB03FBD408BD000036
:109B50004FF0804110B5D1F8003163B14FF48070FF
:109B6000FFF7BCFF0D4B58790122C1F8082310B94B
:109B70005A711B6898474FF08042D2F8043163B1A4
:109B80004FF48270FFF7AAFF0223C2F80833034B99
:109B9000BDE810401B680120184710BD483F002059
:109BA00000F1804000F5C040002382B003600368EC
:109BB0000193019B02B0704703681F2B83BF03F022
:109BC0001F03036001484FF0A0407047000300509E
:109BD00007B5019001A8FFF7EFFF019B00EB8300A1
:109BE000D0F8003723F44033C0F80037D0F80037FE
:109BF00043EA0141C0F8001703B05DF804FB000020
:109C0000054B4FF0FF32072843F8202084BFC018CF
:109C100080F85820704700BF503F002038B51E4CD8
:109C200094F86A30ABBB4FF6FF71FF205A09012A46
:109C30000CBF0A464FF0FF3203F01F05EA40D2077F
:109C400048BFE21803F1010348BF82F83000302B0F
:109C5000ECD10021C8B20131FFF7D2FF0C29F9D1B4
:109C6000062200210D4804F0E3FD0D4BC02283F8CD
:109C7000062340221A604FF4BE70FFF791FF094B94
:109C80004FF00042C3F80423012384F86A30002017
:109C900038BD0820FCE700BF503F0020B43F002043
:109CA00000E100E000600040034B93F86A000038D8
:109CB00018BF0120704700BF503F0020F7B53D4F4F
:109CC0003B18044693F93030002B71DA8B78C3F3DC
:109CD0004003002B0BBF082500250C2008208542DF
:109CE00002D1042003B0F0BD57F82560013647D1FA
:109CF00038196EB247F8252080F8306013B97B1907
:109D000083F858408B785A071AD4D8073AD501A857
:109D10000194FFF751FF019B00EB8300D0F800375F
:109D200023F00203C0F800372348E20804F0070CD0
:109D3000012303FA0CF310F802C043EA0C03835426
:109D400088780B7810F0020028D0AD0005F180452E
:109D500005F5C0452402D5F8102522F44F3222F42F
:109D60004072C5F810251B04D5F8102504F47C5466
:109D700003F440331C431443C5F810450020B1E7F9
:109D80000135ACE701A84A780194FFF715FF019B64
:109D900003F5E073920040F82320C5E7083E47FA38
:109DA00086F797F8604044EA831387F8603099E7B4
:109DB000082097E7503F0020B43F002073B5244DA2
:109DC0002E18044696F93020072A1DDD083A45FA78
:109DD00082F595F860309B09032B10D1019001A802
:109DE000FFF7EAFE019BD0F81015D94001F0010100
:109DF0000231204602B0BDE87040FFF7E9BE012BFA
:109E00000CBF02210321F4E7D3B2072B1DD8930026
:109E100003F1804303F5C043D3F8100540F001007F
:109E2000C3F8100502F1400040B2800080B2FFF795
:109E3000B7FE51B196F9303055F823302BB10123DC
:109E400003FA02F2034BC3F8042302B070BD00BF53
:109E5000503F00200060004007B5019001A8FFF7C7
:109E6000ABFE019BD0F81005D84000F0010003B014
:109E70005DF804FB2DE9FF470024CDE90244584D6D
:109E80004FF48072012102F1804303F5C04390B288
:109E90001B68012B06D1D5F804330B4202D0FFF723
:109EA0007FFE0C430432B2F5907F4FEA4101EAD1C4
:109EB0004B4BD3F87C31012B11D14FF4BE70FFF71F
:109EC0006FFE4FF0A04344F00044D3F820250292E7
:109ED000C3F82025D3F820280392C3F82028E3B242
:109EE000D3B1404F00250126344210D0AB0003F11E
:109EF000804303F5C043D3F81005D3F8101557F885
:109F0000253023B1C1F30141C0F305209847013545
:109F1000082D4FEA4606E7D1002C59DA314D324C74
:109F2000324E4FF00008012716F9013B5A1C3CD075
:109F3000C3F3C20104A801445FFA83F911F8081CB5
:109F400003F03F0203F0070307FA03F319422CD092
:109F500001A80192FFF730FE019B03F5E07350F872
:109F60002330C3F3014ABAF1020F0CBF03210221CF
:109F70001046FFF72DFE01A80192FFF71DFE019B81
:109F800007FA03F3C0F82035AB1893F9303055F8D1
:109F9000233053B14FEA9911032904D0BAF1020FCB
:109FA00019D1012901D11046984708F10108B8F1EB
:109FB000040FB9D14FF0A043D3F820250292C3F883
:109FC0002025D4F820350393C4F820351343A7D1B6
:109FD00004B0BDE8F087BAF1030FE6D10229E1E74A
:109FE00000600040503F002000030050B03F0020C0
:109FF000014B1B68184700BFBC3F00200E4B984226
:10A0000037B50C4602D0002003B030BD00230DF15F
:10A0100007008DF80730FEF771FB084B1D7915B965
:10A0200001221C601A719DF80700FEF78BFB002DC2
:10A03000E9D01120E8E700BF00200040BC3F00202D
:10A040000023435082B043580193019B02B07047F4
:10A050000A4610B54FF48E71FFF7F2FF136A91684C
:10A06000C95C136A01331362C0F81C1510BD0246A7
:10A0700008B500684FF49271FFF7E2FF10684FF4E3
:10A080008471FFF7DDFF136801221A6008BD8B6938
:10A090000A4610B54FF4847123B9FFF7D1FFD0F809
:10A0A000183510BDFFF7CCFF536AD168D0F81805FA
:10A0B000C854536A01335362F3E700001FB501230C
:10A0C0008DF80030044BCDE90110D3E90012684649
:10A0D000904705B05DF804FBC43F002030B54D4DFE
:10A0E000D5F804339A0585B051D5D5F82431002B25
:10A0F0004DD04FF492712846FFF7A2FF4FF4017341
:10A10000C5F80833444B93F829200AB901226A6044
:10A11000404902228DF80020D1F88024C1F8802423
:10A1200003929A690292DA6801920022C3E9062238
:10A130006846D3E9001290473648D0F81C315BB12D
:10A14000354A5169136A99424DD992F82830002B4B
:10A1500049D11146FFF77CFF2E48D0F84431002B3F
:10A1600056D04FF4A271FFF76BFF2B4B93F82920C9
:10A170000AB1012202609A69002A49D0586AD96856
:10A1800000229A6105B0BDE83040FFF797BFD5F8CF
:10A1900004335B07D0D5D5F80831002BCCD01E4C4A
:10A1A0001C482146FFF773FF636AA2699A42C3D134
:10A1B000E369E1684BB1A3612369E3600023606A4E
:10A1C000E3616362FFF77AFFB6E794F829300BB9D1
:10A1D00001236B600F4B4FF40172C3F80823002377
:10A1E000606AA361EEE70B484FF48E71FFF728FF1A
:10A1F0005369002BB0D051690291002391688DF80A
:10A200000030019153616846D2E900139847A3E7F3
:10A2100005B030BD00200040C43F00202DE9F843C8
:10A22000604D90F804802C2303FB0853064693F8F6
:10A230002A300C469146002B40F0AF805A49006806
:10A24000FFF7DCFE0746002840F0A9802268531C77
:10A2500010D01F2A87BF554902F01F0313464FF045
:10A26000A0410120984003F5E073C1F808050320E0
:10A2700041F823006168481C0DD01F298BBF01F0F5
:10A280001F030B4649484FF0A04003F5E0734FF021
:10A29000000C40F823C03068A369C0F8243594F856
:10A2A00014C0637DBCF1010F4CEA0303C0F86C35A8
:10A2B000C0F81415C0F80C252BD1A368591C0DD07B
:10A2C0001F2B8BBF03F01F021A4638494FF0A041E5
:10A2D00002F5E0724FF0000C41F822C0E1684A1C20
:10A2E00013D01F2987BF314A01F01F0C8C464FF055
:10A2F000A0424FF0010E0EFA0CFE0CF5E07CC2F805
:10A3000008E54FF0030E42F82CE0C0F80815C0F83D
:10A3100010352C2202FB08F2AB18C3F80490236915
:10A32000AB50B9F1000F20D04FF48E71247FFFF7AE
:10A3300087FE4FF4A2713068FFF782FE32681C4B33
:10A34000C2F80433130B42F307326101002AC9B289
:10A350001EDB1848841884F800130121520903F009
:10A360001F0301FA03F340F8223033680422C3F8D4
:10A3700000252C2303FB08530022C3E9062283F89F
:10A3800029205A61012283F82A203846BDE8F88343
:10A39000094A03F00F03D154E7E70827F5E711272F
:10A3A000F3E700BFC43F0020DDA00200000300501F
:10A3B0008000020000E100E014ED00E00279044BAF
:10A3C0002C2101FB02335869003818BF0120704767
:10A3D000C43F00202DE9F84F064690F804808946D6
:10A3E0009246FFF7EBFF044600283CD1204F2C2576
:10A3F00008FB057B4FF48E71CBF814A0CBF80890C6
:10A40000CBF820008BF828003068FFF719FE306881
:10A41000012383605946FFF71BFEDBF804305D46DD
:10A420001BBB3068DBF814402B6A9C4211D83368A0
:10A43000D3F81C21002AFBD00122DA6000202C2353
:10A4400003FB087700237B61BDE8F88F95F828307F
:10A450003BB9D0F81C31002BF8D05946FFF7F8FD76
:10A46000E2E70F20EBE71120EEE72046ECE700BF24
:10A47000C43F00202DE9F0473A4D07792C2303FB18
:10A48000075306465C6824B103684FF40170C3F8B3
:10A4900008032C2303FB0753986950B1D86900289F
:10A4A00041D024B133684FF40172C3F8042311245E
:10A4B00036E09A61D9605862D8612C2303FB0753B8
:10A4C00093F829301BB910B93046FFF7D0FD4FF093
:10A4D0002C0808FB075A3068DAF80430002B37D113
:10A4E0004FF4A271D046FFF7ABFD3068D0F824914D
:10A4F000D0F80831D0F84441CBB914B9B9F1000F04
:10A50000F3D02C2303FB07550023AB61B9F1000FF7
:10A5100024D12CBB95F8291033680122B1B11A60FF
:10A520002046BDE8F0871961DA610120C5E7B9F17D
:10A53000000FE6D1002CE4D14146FFF7A8FDDAF880
:10A540002430DAF818209A42CFD8DAE75A60E7E7E1
:10A550004FF40173C0F804330024E1E70324DFE77C
:10A560000F24DDE7C43F00200023435082B043584E
:10A570000193019B02B070471FB501238DF8003095
:10A58000044BCDE90110D3E900126846904705B0AD
:10A590005DF804FBF03F00207FB5434AD2F8246108
:10A5A000002E60D010464FF49271FFF7DDFF0223BA
:10A5B0008DF80030D2F88034C2F880340393D2F89A
:10A5C0003C350293394BDA6801920022C3E9062236
:10A5D0006846D3E9001290473348D0F8443173B14C
:10A5E0004FF4A271FFF7C0FF304B9A693AB10022D5
:10A5F000C3E90622D968D0F83C05FFF7BDFF2A4819
:10A60000D0F82031ABB14FF49071FFF7ADFF0123CB
:10A61000C360264B5A6962B1D0F84C1502910022F2
:10A6200099688DF8002001915A616846D3E90012BB
:10A6300090471D48D0F858319BB14FF4AC71FFF7EB
:10A6400093FF1A4B5A6962B1D0F84C15029100225F
:10A6500099688DF8002001915A616846D3E900128B
:10A66000904704B070BDD2F81031002BB4D04FF435
:10A6700088711046FFF778FF0C4BD2F83C059969BA
:10A680008842A9D1DC69D96864B1D2F8005225F0BA
:10A690002005C2F800521A699C61DA60DE61FFF79A
:10A6A0006BFF99E79C61FAE700200040F03F002033
:10A6B0002DE9F843664E90F80480242303FB0863D9
:10A6C000044693F820300D469146002B40F0BC80A4
:10A6D00060490068FFF792FC0746002840F0B6800A
:10A6E00029684B1C10D01F2987BF5B4A01F01F034C
:10A6F0000B464FF0A0420120984003F5E073C2F8EA
:10A700000805032042F823006A68501C0DD01F2A58
:10A710008BBF02F01F0313464F484FF0A04003F5D4
:10A72000E0734FF0000C40F823C02068AB69C0F81C
:10A73000243595F814C06B7DBCF1010F4CEA03037E
:10A74000C0F86C35C0F80C15C0F814252BD1AB68D7
:10A75000591C0DD01F2B8BBF03F01F021A463E4918
:10A760004FF0A04102F5E0724FF0000C41F822C01A
:10A77000E9684A1C13D01F2987BF374A01F01F0C14
:10A780008C464FF0A0424FF0010E0EFA0CFE0CF575
:10A79000E07CC2F808E54FF0030E42F82CE0C0F868
:10A7A0000815C0F81035242202FB08F2B318C3F8CC
:10A7B00004902B69B350B9F1000F2FD04FF488717A
:10A7C0002A7FFFF7D1FE20684FF49071FFF7CCFE8F
:10A7D00020684FF49271FFF7C7FE20684FF4A27112
:10A7E000FFF7C2FE4FF4AC712068FFF7BDFE23688F
:10A7F0001A49C3F80413190B43F307335201002B12
:10A80000D2B21CDB1648C51885F8002301225B096B
:10A8100001F01F0102FA01F140F823102368082219
:10A82000C3F80025242303FB08660023C6E906338A
:10A830007361012386F820303846BDE8F883094B60
:10A8400001F00F015A54E9E70827F5E71127F3E76C
:10A85000F03F002099A502000003005010034200C1
:10A8600000E100E014ED00E00279044B242101FB3B
:10A8700002335869003818BF01207047F03F0020AC
:10A8800001F06043B3F1005F2DE9F04706468846CA
:10A8900092463BD190F80490FFF7E6FF044600286B
:10A8A00036D11D4F3068242505FB09754FF4907192
:10A8B000C5F814A0C5F80880FFF756FE4FF4AC7138
:10A8C0003068FFF751FE33686A69A968C3F8441518
:10A8D000C3F8482501229A606A68DAB9D3F82021C2
:10A8E000D3F858011AB90028F8D00F2007E0002843
:10A8F000FBD10122DA60D3F85821002AFBD02423AF
:10A9000003FB097700237B61BDE8F0871020FBE79C
:10A910001120F9E72046F7E7F03F0020F8B501F0F5
:10A920006043B3F1005F04460F465ED10379304DBA
:10A93000242101FB0351496821B100684FF40476DA
:10A94000C0F80863242000FB03539E6956B1D86900
:10A95000002839D021B123684FF40472C3F80423CE
:10A96000112030E09A61DF60DE6120684FF4887169
:10A97000FFF7FAFD20684FF4A271FFF7F5FD236899
:10A98000C3F83475C3F8382516BB01221A60247940
:10A99000242202FB045252680ABBD3F81011D3F8E8
:10A9A0004421D3F82401114302D10028F5D00A46EE
:10A9B000242303FB04550023984218BF03209A4226
:10A9C000AB6118BF0F20F8BD1F61DA610126CCE72B
:10A9D000D3F8002242F02002C3F80022D7E74FF458
:10A9E0000472C3F804230020EDE71020EBE700BF5A
:10A9F000F03F00201F288ABF094B4FF0A04300F012
:10AA00001F0003EB8000D0F8003723F44033C0F878
:10AA10000037D0F8003743EA0141C0F8001770470B
:10AA2000000300500220FEF7E1BE00002DE9F047D0
:10AA300080460D46FEF708FF0328044610D8012D76
:10AA400010D0022D30D05DB91A48FDF73FFC1A4BEB
:10AA500004EB440213449D78184B1B5DAB4219D0A4
:10AA6000BDE8F087144E00EB4003F218F55C537814
:10AA7000470053B1DFF84C900E484A464FF48041EE
:10AA8000FDF7F6FB08B989F8008027443E440B4BDC
:10AA9000B2781A55002DE3D0094B1B68002BDFD08C
:10AAA0002846BDE8F047184700EB4004024804443C
:10AAB0006578EFE7D83100201640002031400020B3
:10AAC0002C4000201440002000780221FFF7AEBF88
:10AAD00008B5094B1B7853B10020FEF755FE012045
:10AAE000FEF752FEBDE808400320FEF74DBEBDE86C
:10AAF0000840FEF75DBE00BF15400020F8B57A4C57
:10AB0000237805461BB100232370FFF7E1FF172DC3
:10AB100000F28780DFE805F00C1717425364757F59
:10AB2000878C878C949999999999C3C8D0D8E3E375
:10AB3000FFF7CEFF6D48FDF7C9FB6D4B00220446C1
:10AB40001A702046F8BD0020FEF7F6FDF0B1002097
:10AB5000FEF71AFE022D0CBF4FF4E1644FF47A6445
:10AB6000634B1D7000254FF400464FF47A70294660
:10AB70004FF4FA620023E4FB060103F0AFFC2A461F
:10AB80000146BDE8F8405948FDF772BBFEF7E8FD05
:10AB9000022D0CBFC8244FF4C874E1E70020FEF773
:10ABA000CBFD40B10020FEF7EFFD4FF44874504B51
:10ABB00003221A70D6E7FEF7D3FDC824F7E700207A
:10ABC000FEF7BAFD38B10020FEF7DEFD4FF47A64DF
:10ABD000474B0422EDE7FEF7C3FD4FF4C874F7E7D7
:10ABE0000020FEF7A9FD48B10020FEF7CDFD404B47
:10ABF00005221A7040F6CD410022C2E7FEF7B0FDF3
:10AC0000F5E70020FEF7F2FD394B06221A7000220C
:10AC100040F26661B5E70020FEF7A2FD344B072243
:10AC20001A7000248DE701202070FEF7DFFDEEE7AB
:10AC300001202070FEF7DAFD00224FF40051A0E75A
:10AC4000FEF7C5FD2A4B0C22EAE72A482A4EFDF7FB
:10AC50003DFBD5F1110504461CD0D8B9012D13D008
:10AC6000C820454321464FF400474FF47A704FF413
:10AC7000FA620023C5FB070103F030FC22460146BF
:10AC80001C48FDF7F5FA04460220FEF769FD012392
:10AC9000337056E70220FEF777FD0023F8E7FFF751
:10ACA00017FF134B1222BBE7FFF712FF0020FEF73E
:10ACB00057FD0F4B1322B3E7FFF70AFF0120FEF702
:10ACC0004FFD0B4B1422ABE7FFF702FF0020FEF70E
:10ACD00047FD0120FEF744FD054B1522A0E7FEF7D6
:10ACE00076FD034B1D709CE728400020F8310020C2
:10ACF00030400020B831002015400020044B1B6874
:10AD0000DB0703D5034B1878FFF7F8BE704700BF89
:10AD10002440002030400020032801D8FEF780BDE9
:10AD200000207047044B1B6813F0010301D0FFF7AC
:10AD3000E5BE1846704700BF2440002038B51C4BC4
:10AD400018601C4B10F00204054619601AD01A4B0B
:10AD50001A480E221A700F22DA7010229A711122EC
:10AD60005A72042140F23332FDF7BEF8044648B966
:10AD7000FDF712F9044628B90146114A1148FDF7BA
:10AD800065FA0446EB0711D50120FEF775FD6CB995
:10AD900021460D4A0D48FDF759FA044630B9BDE881
:10ADA00038400B4A0B480121FDF750BA204638BD08
:10ADB000244000202C40002016400020F4F7020020
:10ADC000C9AA020018F80200FDAC02001CF802003B
:10ADD00025AA020014F80200032811D8012A0AD17A
:10ADE00001290FD100F10E02D2B20D4B00EB400051
:10ADF0001A54002070470129F7D0022904D049B124
:10AE0000072070470022F8E7054B00EB400018448C
:10AE10004270EEE7024B00EB400018448270E8E716
:10AE200016400020032808B506D8FEF71FFD0321B1
:10AE3000FFF7E0FD002008BD0620FCE708B5012271
:10AE400002210020FFF7C8FF08B1072810D1072210
:10AE500002210120FFF7C0FF08B1072808D1002117
:10AE60000A220846FFF7B8FF10B1072808BF0020E4
:10AE700008BD00000388102B10B502D0112B1ED086
:10AE800010BD1A4C2168B1B901220846FFF7A4FF92
:10AE900008B1072824D1072202210120FFF79CFFD7
:10AEA00008B107281CD1042202210020FFF794FFDB
:10AEB00008B1072814D1236801332360E0E70B4A67
:10AEC0001368013B1360002BDAD1FFF7B7FF0028AE
:10AED000D6D0074B1B68002BD2D0BDE810401847D6
:10AEE000034B1B68002BE6D09847E4E73C4000206A
:10AEF0003840002008B50020FFF794FF08B106286D
:10AF000006D10120FFF78EFF10B1062808BF0020F0
:10AF100008BD00000D4B10B518600C4629B101208A
:10AF2000FFF7FAFE40B102232370094B1B6853B9A7
:10AF3000BDE81040FFF782BFFFF7EEFE08B10B231C
:10AF4000F2E72070F1E7002010BD00BF384000207C
:10AF50003C40002075DF704776DF70477ADF70472E
:10AF60007CDF70477FDF70478FDF7047FDF72AB8BF
:10AF700070B50378012B044637D0022B26D023BBB3
:10AF80001D4C1E4D20882844FDF77AFB2388013391
:10AF90009BB21D44238015F8012C0A2A05D00D2AE6
:10AFA00003D0174A12889A420FD8144D154E2288A2
:10AFB0002946304602F0C6FE082804D01328F6D0F1
:10AFC00008B1FCF7FFFF0023238070BD0E4B0F4834
:10AFD0000F491B1ADB081B0443F00100FCF7F4FCCB
:10AFE0006068BDE87040FCF7EDBF074B07480949B2
:10AFF0001B1ADB081B04EFE734410020404000200F
:10B0000032320020F8460020ACEF020084EF02004C
:10B0100020F8020052F8020010B5084B0849044617
:10B0200008481B1ADB081B04224643F00100FCF70A
:10B03000CFFC2046BDE81040FCF7C4BFACEF0200D7
:10B040007EF8020084EF020007B50822002168465E
:10B0500003F0EEFB064B00936846064B019301F0AC
:10B06000E9F908B1FCF7AEFF03B05DF804FB00BFDF
:10B0700079B002001C3200200146014802F07DBD7B
:10B08000F8460020F7B50B78012B06460C4625D074
:10B09000022B5CD0002B50D1344B354D4A883549BA
:10B0A000ED1AED082D0445F003052846FCF790FC49
:10B0B000618804F10E02304602F094FE08B1FCF7FC
:10B0C00081FF304602F00AFE08B1FCF77BFF2A49F7
:10B0D000284603B0BDE8F040FCF776BC234B244D76
:10B0E000264F8A892649ED1AED082D0445F00306FE
:10B0F0003046FCF76DFC3B884FF6FF72934223D03D
:10B10000A2892049ADF806203046FCF76AFCA16808
:10B110003B881D480DF1060202F090FF044670B115
:10B1200020F00203112B08D0FEF7C2F9174903469D
:10B13000224645F00200FCF754FC03B0F0BD144970
:10B140003046FCF741FCF8E712493046C1E7074BAF
:10B1500007484A881049C01AC008000440F003009C
:10B1600003B0BDE8F040FCF733BC00BF84EF020041
:10B17000ACEF0200A7F80200CAF802003432002047
:10B18000EEF802000DF902000838002039F902003B
:10B1900062F902007DF90200A4F90200F0B503781B
:10B1A000022B89B0044661D0032B00F08880002B6D
:10B1B00040F08380474B484D02894849ED1AED081D
:10B1C0002D0445F00306838A3046FCF70AFCA38A67
:10B1D000052B2AD942492069062203F0D1FA0746F5
:10B1E00018BB30463F49FCF7EFFB3846FEF7B8FA8C
:10B1F0003D4B1B884FF6FF72934233D0A28A3B49E6
:10B200003046FCF7EEFBA28A2169394802F09AFD2C
:10B2100020F00203112B02461AD1364945F00200F4
:10B2200009B0BDE8F040FCF7D3BBA38A062BDFD9F9
:10B2300031492069072203F0A3FA07460028D7D135
:10B2400030462E49FCF7C0FB3846FEF79DFACFE7A3
:10B2500008B12B49E2E72B49304609B0BDE8F04080
:10B26000FCF7B2BB284945F00200F6E7194B1A4833
:10B2700022892649C01AC008000440F00300FCF7E8
:10B28000A7FB234B02AA03F110061546186859685C
:10B29000144603C40833B3422246F7D118689B888A
:10B2A000A38015232060ADF806301A4B1A481B887E
:10B2B0000DF10602294602F0C1FE09B0F0BD0648B4
:10B2C000044B22891549C01AC008000440F003004D
:10B2D000A6E700BF84EF0200ACEF0200D3F9020042
:10B2E00009FA020010FA02003632002060FA020069
:10B2F000F84600209DFA020035FA02003DFA0200ED
:10B30000EAFA020011FB02002FFB020067FB0200B9
:10B3100032FC02003432002008380020CAFB020050
:10B3200008B5074801F044FF08B1FCF74BFE0120C7
:10B33000FFF7F8FC18B1BDE80840FCF743BE08BDB4
:10B34000304700201FB50378052B12D0062B17D0ED
:10B35000042B2AD1164B17481749C01AC0080004FD
:10B3600040F00300FCF730FB04B0BDE81040FFF7ED
:10B37000D7BF4068C8B104B0BDE81040FCF722BE9A
:10B3800041680B4C0B488B784A78001B8C790394EE
:10B390004C7902940C790194C008C978009100049A
:10B3A000064940F00300FCF732FB04B010BD00BFBB
:10B3B00084EF0200ACEF020076FC020048FC0200C1
:10B3C00008B598B103281DD10F4B10481049C01A79
:10B3D000C008000440F00300FCF7F6FA0220FFF773
:10B3E000A1FC78B1BDE80840FCF7ECBD064B07486E
:10B3F0000849C01AC0080004BDE8084040F0030036
:10B40000FCF7E2BA08BD00BF84EF0200ACEF020017
:10B4100086FC0200A7FC020010B504460020FFF7DE
:10B4200081FC08B1FCF7CEFD24B9FFF763FD08B13C
:10B43000FCF7C8FD012010BD0A8840F677239A4228
:10B4400013B50C4617D10D4B0D480E49C01AC00854
:10B45000000440F003000190FCF7B6FAA3880A4A02
:10B460000A490198033B9BB213801A4602B0BDE81B
:10B470001040FCF7B6BA02B010BD00BF84EF020066
:10B48000ACEF0200C3FC020032320020DFFC0200FD
:10B49000042808B506D00A2810D1BDE808400020CD
:10B4A000FDF794BE064B13215888FFF755FD30F089
:10B4B000080303D0BDE80840FCF784BD08BD00BF09
:10B4C000F846002010B503780446BBB90C480D4B74
:10B4D00062880D491B1ADB081B0443F00200FCF7CD
:10B4E00077FA0A4A63881088984207D13B21FFF710
:10B4F00033FD18B1BDE81040FCF764BD10BD00BFBE
:10B5000084EF0200ACEF020007FD0200343200209D
:10B5100010B50F480F4C032101F0F0FF0E4AA41A9A
:10B52000E40808284FEA044403D10C4944F003001E
:10B5300004E0122806D10A4944F00200BDE8104098
:10B54000FCF742BA08B1FCF73DFD0649EEE700BF43
:10B5500038410020ACEF020084EF020040FD020001
:10B5600073FD0200C7FD02007FB50388212B04464E
:10B570000FD80F2B13D9103B112B10D8DFE803F095
:10B58000114D0F8A0F0F0F0F0F0F0F7A0F0F0F981C
:10B590000F9E3B2B00F0A180562B00F09E8004B044
:10B5A00070BD504B504D82885049ED1AED082D0466
:10B5B00045F00306C37B3046FCF713FAE37B022B0E
:10B5C0001ED10720FFF7AEFB08B1FCF7FBFCA188FA
:10B5D000474C4848218000F06BFF2288034640B169
:10B5E000454945F00100FCF7FCF94FF6FF73238055
:10B5F000D5E74249304604B0BDE87040FCF7E8B9F1
:10B60000012BCCD10720FFF78DFB08B1FCF7DAFC4A
:10B610003B4BA2883B491A80ECE7324B3248A28868
:10B620003949C01AC0080004237A40F00300019091
:10B63000FCF7D7F9A3882E4C019822889A420AD1A8
:10B640003249FCF7C1F94FF6FF73238004B0BDE81F
:10B650007040FFF765BE2A4C22889A429FD12C4940
:10B66000FCF7B2F94FF6FF73238004B0BDE87040D9
:10B67000FFF74EBF037A022B91D11A4B1A48254986
:10B68000C01AC008000440F0030004B0BDE87040D8
:10B69000FCF79AB9002380881A468521FFF762FCDF
:10B6A00000283FF47CAF04B0BDE87040FCF78ABCD2
:10B6B00000F108018088FFF74DFCF1E70023808846
:10B6C0008DF80C3003A98DF80D30FFF74DFC0028E4
:10B6D0003FF465AFFCF776FC61E7A0881321FFF724
:10B6E0003BFCDDE784EF0200ACEF020000FE02004D
:10B6F00036320020383200202CFE02005EFE0200AE
:10B700003432002089FE0200AAFE0200D8FE0200A8
:10B71000EDFE020001FF020008B50849084801F0EB
:10B720006BF908B1FCF74EFC0548F72101F07CF9F4
:10B7300018B1BDE80840FCF745BC08BD39B40200AB
:10B740001047002070B54FF48041B0B00020FBF7E7
:10B750009DFF08B1FCF736FCFBF7D6FEFCF744FD75
:10B7600008B1FCF72FFC904D0FCD05AC0FC495E848
:10B7700003008E4B8E4A01934FF4807384E80300DC
:10B78000CDE9032302938B4A072301A905A8FCF7FF
:10B790001FFF08B1FCF716FC87490120FFF7CEFA1E
:10B7A00008B1FCF70FFC05A90020FFF7B3FB08B1B7
:10B7B000FCF708FCFFF748FCFDF7CAFC08B1FCF7F2
:10B7C00001FC02F0B9FC08B1FCF7FCFB7B4B0593D4
:10B7D00005A9012002F042FD08B1FCF7F3FB05A822
:10B7E00002F00EFE08B1FCF7EDFB112374488DF852
:10B7F000043003F072F8724982B201A8FFF7B0FB7F
:10B8000008B1FCF7DFFB0822002105A803F010F8BF
:10B810001023ADF814303C23ADF816300023ADF8FA
:10B82000183005A84FF4C873ADF81A30FFF796FB2F
:10B8300008B1FCF7C7FB634B634C6449E41AE408A6
:10B84000240444F003063046FCF7BEF8FFF764FF1B
:10B85000AC22002105A802F0EBFF02238DF8143082
:10B8600040F201635A4AADF816300123ADF860305A
:10B8700019928DF8903020224FF48043CDE9272390
:10B880005448554B2E9305A901F0C1FD054660B102
:10B8900003460246514944F00100FCF7A2F828464D
:10B8A000FCF790FB2846FCF78DFB4A48012101F08C
:10B8B000ABFD4B493046FCF787F8FFF7C5FB494B1A
:10B8C0000593494B06934948494B079305A902F054
:10B8D0009FF908B1FCF776FB0021042205A802F0CD
:10B8E000A7FF444B4448059305A902F02DFB08B17E
:10B8F000FCF768FB41493046FCF766F81C22002142
:10B9000005A802F095FF00234FF4A032CDE90532DF
:10B91000ADF822304FF4F0228DF82430384B0792E6
:10B920000A930322374B8DF8202005A80B9302F0D1
:10B930002DF808B1FCF746FB33493046FCF744F8D4
:10B940001022002105A802F073FF01232F4A30487E
:10B950008DF8183005A98DF8203001F0CEFB08B124
:10B96000FCF730FB2B4A2A48032101F09BFB08B16E
:10B97000FCF728FB26480022042101F0AAFB08B1AD
:10B98000FCF720FB244802F0DBFE24493046FCF79C
:10B990001BF8FFF7C5FCFFF7BBFDFBF7C9FE00284E
:10B9A000FBD1FDF7EBFBF8E7200003008047002008
:10B9B0008048002071AF020091B402007031002075
:10B9C0001FFF020084EF0200ACEF020031FF020013
:10B9D0001832002038410020C1B3020049FF0200A4
:10B9E00080FF020085B002006DAF0200F846002023
:10B9F0001C3200209DB1020008380020A0FF020088
:10BA0000C5B4020019B00200B8FF020045B302003D
:10BA1000304700204C000300D7FF0200FCFF02006B
:10BA20000369C26893429CBF80681B18013B981A47
:10BA300070472DE9F843D0E902940546A9EB0408C4
:10BA40004068904520440F46144404D902F0C7FED4
:10BA5000EC60BDE8F8834246A4EB090402F0BFFEA7
:10BA60006868224607EB0801F0E72DE9F843C5684E
:10BA70000646894617464FF000083469B368706877
:10BA8000A54228BFE418013C621B5C1BBC4228BFD6
:10BA90003C46944228BF144649462844224602F0B8
:10BAA0009EFEB3682544AB4208BF00253F1BA0445F
:10BAB000A144F560E1D14046BDE8F88310B5114CD2
:10BAC000114AA2610223C4E90433104BE361A2646A
:10BAD0004FF400730E4A0F492362E26400231022E0
:10BAE000E01DA3626362E362A3656365E3652265AB
:10BAF00002F0D1FE0849204602F0CDFE2023A371BA
:10BB000010BD00BF8049002050000300084A0020FB
:10BB1000F8490020590003005D00030070B5164B82
:10BB2000182400FB04451D4404FB00331646DC6A60
:10BB3000012C0ED0022C18D0E4B92846FFF770FF74
:10BB4000864204D832462846FFF773FF3446204623
:10BB500070BD2846FFF764FF8642344628BF04467E
:10BB600022462846FFF765FFF1E72846BDE870400A
:10BB7000FFF77BBF0024EAE780490020FFF79EBF64
:10BB80006DDF704779DF70477DDF704764DF704796
:10BB90002DE9F04F85B000250E9CBDF83CB0B4F8FF
:10BBA00000A00191074690461E46A9463A884A459C
:10BBB0000DDC45B12388013BA3EB0A039BB2FF2BAD
:10BBC0003AD806F80A30002005B0BDE8F08F7A6850
:10BBD00052F82900039000220DF10B0103A8FFF792
:10BBE000D5FF0028F0D19DF80B20424521D12288B5
:10BBF000002D14BF0020022002EB0801014459452A
:10BC00001ADC3DB9013292B2019B2280B3542288E2
:10BC10000132228022880DF10B01324403A8FFF784
:10BC2000B5FF0028D0D121889DF80B200A4422803E
:10BC3000012509F10109B9E70C20C5E72DE9F34118
:10BC4000089FBDF824801546CDE9007802220446FD
:10BC50001E46FFF79DFF50B9334610222946204665
:10BC6000CDE9087802B0BDE8F041FFF791BF02B01E
:10BC7000BDE8F0812DE9F04F00231788138090F87C
:10BC80002D3085B006460D46144653B3082F01D813
:10BC90000C2027E102A8FFF773FF002840F0228163
:10BCA00023880822EA54238801339BB21B22238075
:10BCB000EA542088013080B2208006220DF109016B
:10BCC000284402F08CFD23889DF8082006339BB29F
:10BCD00012F0FE0218BF01222380EA5423880133A8
:10BCE0002380B378FBB123880433BB42D0D802A8A9
:10BCF000FFF748FF002840F0F58023880322EA542C
:10BD0000238801339BB219222380EA542388BDF88B
:10BD1000082001339BB2E9182380EA54120A4A70C2
:10BD2000238802332380F2789AB12388D91CB94240
:10BD3000AED80221E954238801339BB2012123802C
:10BD4000E95423880B449BB22380EA5423880B4494
:10BD500023807268AAB12388D91CB94298D80221DD
:10BD600092F90020E954238801339BB20A212380F1
:10BD7000E954238801339BB22380EA54238801339A
:10BD800023803389002B40F0A180338A5BB1CDE959
:10BD900000472B460722032106F11000FFF74EFF54
:10BDA000002840F09F80338B5BB1CDE900472B46E4
:10BDB0001522142106F11800FFF740FF002840F07B
:10BDC0009180326A002A40F09080D6F82480B8F141
:10BDD000000F30D0B8F804302188981C8A1C024427
:10BDE000BA423FF655AFFE283FF652AF03336B54CD
:10BDF000238801339BB2FF222380EA542388013336
:10BE00009BB22380B8F80020EA54E918120A4A705D
:10BE10002088023080B22080B8F804205AB1D8F8C7
:10BE2000081000296BD0284402F0D9FC2388B8F808
:10BE300004201344238096F82C30002B40F0988087
:10BE4000307800284ED03388012B58D0228802F158
:10BE5000020CBC453FF61CAF012805D173780233B4
:10BE600013449F42FFF414AF023FBF1ABFB202A9AE
:10BE700005EB0C00ADF80870FFF786FE90BB31783B
:10BE8000BDF80830022900F0B98072789A4202D3D6
:10BE90009F4280F0B180012940F0B280974293B276
:10BEA000C0F0AE80ADF808300821BDF80830FE2B98
:10BEB0003FF6EEAE22880133AB542288013292B2B3
:10BEC0002280A9542288134423800BE0CDE9004747
:10BED0002B460622022106F10800FFF7AFFE0028DC
:10BEE0003FF453AF05B0BDE8F08FB4F800C00CF1DB
:10BEF0000603BB423FF6CCAE1188052901D80720C6
:10BF0000F0E76FF4486E01EB0E039BB24FF27D3EFB
:10BF10007345F4D95388052BF1D96FF4486018188C
:10BF200080B27045EBD94FF6FF70814201D0994243
:10BF3000E5D8052305F80C30238801339BB2122184
:10BF40002380E954238801339BB223801188E9546C
:10BF5000E818090A4170238802339BB22380528873
:10BF6000EA54E918120A4A702388023323802CE726
:10BF7000B36A002BC3D04FF000084FF00C0A4FF00B
:10BF8000160BB16A5FFA88F20AFB02F201EB0209B2
:10BF9000B9F80430981CFE283FF67AAE20880333A7
:10BFA0002B54238801339BB2238005F803B02388E8
:10BFB00001339BB223808A5AEA54E918120A4A7064
:10BFC0002088023080B22080B9F804205AB1D9F814
:10BFD0000810002993D0284402F001FC2388B9F806
:10BFE00004201344238096F82C2008F101085FFAFE
:10BFF00088F39A42C5D823E7092156E79F42FBD22E
:10C00000ADF8087050E730B5C8B1F2B10024651C36
:10C010008D4206DA1588A54212D805196D789D4221
:10C020000ED1A14211D9005D48B1013880B230B1C2
:10C030000234A3B210FA84F4A14206DB138030BDAF
:10C04000055D01352C44A4B2E1E70020F7E713B504
:10C0500013460022ADF806200DF106020446FFF754
:10C06000D2FF10B1BDF80630E01802B010BDF0B537
:10C0700087B0002306460C461046ADF8063002AAEB
:10C0800010230DF105018DF80530FFF77FFD16B97E
:10C09000002007B0F0BD0028FAD19DF80550042D0E
:10C0A00029D0102D29D0022DF3D10323BDF806206D
:10C0B0006AB90DF1060221463046FFF7A4FFBDF82C
:10C0C00006301BB92B463046FFF79DFF0446BDF8EE
:10C0D0000670002FDCD00025AC42D9D9E8199DF8B4
:10C0E000052002A9304402F0F4FA48B19DF8053069
:10C0F0001D44ADB2F0E70523D8E706250723D5E7B1
:10C100000120C6E730B50B4B19680B4B002291425A
:10C1100001D1002009E09D788478A54206D11D88D0
:10C120000488A54202D1054B186830BD01320433A2
:10C13000EDE700BF104C0020144C0020084C0020FC
:10C140002DE9F84F90F8C6A24FF0760B04460AFB93
:10C150000B0088469146FFF7D5FF074668B3D4F831
:10C16000CC52052D29D804EBC5165A46A6F8D29212
:10C170000BFB0A4106F5357002F031FBB8F1000FF8
:10C18000C6F84C730E4F14BF0023022386F8D0323A
:10C190003B6801359D42C4F8CC520ED104F534758C
:10C1A0000026EB6F284698473B6801369E4205F112
:10C1B0008005F6D30023C4F8CC32BDE8F88F00BF69
:10C1C000104C002030B5A1B004460D467C22002161
:10C1D00001A802F02DFB03238DF80430044BADF8C9
:10C1E00006501B6802940BB101A8984721B030BDDE
:10C1F000084C00202DE9F041074691F8C60276234D
:10C200004FF00008A0B081F8C88200FB03100C4674
:10C210001546FFF777FF064660B17C22414601A82C
:10C2200002F006FB01238DF80430ADF806500297AA
:10C2300001A8B0472946204620B0BDE8F041FFF7ED
:10C24000C1BF000030B58BB0044620220D4602A8C5
:10C25000002102F0EDFA042200210DEB020002F0B1
:10C26000E7FA94F8C53294F8C61213B3013BDAB278
:10C2700076234B43122000FB023323445B8A0133B5
:10C280009BB2ADF80430762303FB01412A460B89AB
:10C29000ADF8063003238DF80830019BCDE9054346
:10C2A000064B0493064B02A9186800F0CFFD0BB0B3
:10C2B00030BD762303FB0143DB88E2E7F5C10200D2
:10C2C0002C4C0020F0B5044689B020220D4668466B
:10C2D000002102F0ADFA94F8C7321E4A0133126809
:10C2E000DBB2934284F8C7324FF000022AD294F8AE
:10C2F000C632194F84F8C5220133DBB2762113FB15
:10C3000001F057F8237084F8C632261827504B43A3
:10C310003271E358CDF81230104B02930222104BC9
:10C320008DF800200122ADF81020186803942A46E9
:10C33000694600F08BFD18B12A462146FFF75AFFE7
:10C3400009B0F0BD84F8C82229462046FFF73AFF1D
:10C35000F6E700BF104C0020144C0020F5C102008D
:10C360002C4C00202DE9F047044688B00D461646B7
:10C3700000212022684602F05BFA94F8C6C294F8C5
:10C38000C51276231CFB03F2A0184FF0120E07799A
:10C390001EFB012301F1010C0A33BC4523441CD0D0
:10C3A00004F11C0C00F1220807F1FF399444CAB2D1
:10C3B000974216D989451B8919D00EFB01FA013322
:10C3C00038F80A2093422AD10CEB0A0394F8C522CC
:10C3D000013284F8C5220131E9E71B8902899342C1
:10C3E00008D101232B70002008B0BDE8F087028936
:10C3F000934218D001339BB2ADF810300B4B02932F
:10C4000000210B4B297004218DF80010ADF812208B
:10C41000186803943246694600F018FDE4E7013AD3
:10C420009BB292B2E8E70023D0E700BFF5C102005B
:10C430002C4C002010B570B1026862B1436853B152
:10C44000064900200860064901240C7005490A606D
:10C45000054A136010BD0E20FCE700BF104C002001
:10C460000C4C0020084C00202C4C002010B5044639
:10C4700080B10C4B1B787BB1FFF744FE70B90A4AC0
:10C480001368052B0CD80949246841F8234001336F
:10C49000136010BD0E20FCE70820FAE70020F8E743
:10C4A0000420F6E70C4C0020104C0020144C002017
:10C4B000F0B50D468BB0044600283BD0204B1B78CE
:10C4C000002B39D01F4B1B68002B35D090F8C812B9
:10C4D000002933D14FF4BA621B4F019102F0A8F941
:10C4E0000199202202A802F0A3F93868294600F039
:10C4F0004DFDE8B9154BC4F8CC0284F8C502A4F888
:10C50000C6021868206002238DF808300126104BFF
:10C51000CDF81A00A4F8CA523868ADF818602A4657
:10C5200002A90594049300F091FC08B984F8C8624C
:10C530000BB0F0BD0E20FBE70820F9E71120F7E76C
:10C540000C4C0020104C00202C4C0020144C0020DF
:10C55000F5C102002DE9FF410C46054660B159B115
:10C56000974B1B7843B10388322B67D007D8112B28
:10C5700000F01881302B1FD004B0BDE8F081332BC0
:10C58000FAD18288B1F8CA329342F5D1C08891F8C5
:10C59000C6C291F8C562002800F0C080762101FB78
:10C5A0000C41002309798DF80F30731C8B4200F089
:10C5B000E68084F8C532A5E08388B1F8CA229A42A1
:10C5C000DAD1C3887BBB91F8C632762202FB031313
:10C5D0000269C3F8062091F8C432827A1344062B0C
:10C5E0000EDC81F8C432A9882046FFF72BFE002814
:10C5F000C2D0AA88214604B0BDE8F041FFF7FABDD9
:10C60000062381F8C4326F486F4B7049C01AC008C6
:10C61000000440F002000190FBF7D6F96C49019844
:10C62000FBF7D2F9DFE720460021FFF789FDA98853
:10C63000204604B0BDE8F041FFF744BE8288B1F85F
:10C64000CA329A4298D1C388002B57D191F8C6724A
:10C65000762317FB03F701EB0708837A98F8046049
:10C660003344062B25DC88F80430122212FB0672B4
:10C67000334605F10C012244002098F80460B342CF
:10C6800001F10A0102F1120227D31222013B02FB3F
:10C69000034394F8C62276213B4401FB0242598AA7
:10C6A000138999422AD2062E28D0A98884F8C56217
:10C6B0009AE7062388F804304248434BCA5B454951
:10C6C000C01AC008000440F002000190FBF780F996
:10C6D00041490198FBF778F9C7E751F80A6C42F82D
:10C6E000086C51F8066C42F8046C31F8026C168044
:10C6F00050809080D08010810133BEE7002384F801
:10C70000C532AA880DF10F012046FFF72BFE002845
:10C7100042D0AA882146FFF76DFD2DE7762303FB63
:10C720000CF3122707FB0633B5F80AE02946234429
:10C730007045BFF433AFCF89A7F52457082F08D829
:10C74000DFE807F014170507070707071A008F89A6
:10C750009F829F8A3FB1DF8A2FB11F8B1FB15F8BF2
:10C76000002F7FF41BAF01300631E1E78F89DF82B4
:10C77000EFE78F891F83ECE78F895F83E9E7012368
:10C780008DF80F302046AA880121FFF7D9FCA9882F
:10C790002046FFF797FDEFE69DF80F30002B3FF4A2
:10C7A000EBAEEFE7B1F8CA3282889A4201BF0023AC
:10C7B00081F8C8324FF6FF73A1F8CA32DCE600BF39
:10C7C0000C4C0020C4EF020084EF02006400030060
:10C7D00083000300C80003000E010300AADF7047B6
:10C7E000002301380B70042806D8DFE800F00306A8
:10C7F000080A0C0011230B7070472123FBE731233B
:10C80000F9E71223F7E72223F5E7008800F001009B
:10C810007047F0B58B7891B0012B0C4638BF0123DF
:10C820008DF80E3005460B88ADF80C300021164609
:10C830006846032201F0FCFF607C6946FFF7D0FFE9
:10C84000A07C0DF10101FFF7CBFFE27B237B217D73
:10C8500043EAC203227C43EA02139DF80220002926
:10C8600022F0190203F0190314BF0221012113431E
:10C8700061F342031C22002109A88DF8023001F067
:10C88000D7FF637B13F0300F15D002AF03220021D6
:10C89000384601F0CDFFE07C0DF10901FFF7A0FF64
:10C8A00011238DF808309DF80A300E97012262F3AB
:10C8B00042038DF80A30637B8DF824301422A37B69
:10C8C0008DF82530002104A801F0B2FF03AB0493DA
:10C8D000A388ADF81C30A368CDF814D01BB1E28852
:10C8E000ADF818200893A369002B31D001AF0322C3
:10C8F0000021384601F09CFFA3691A88ADF82C206E
:10C900005A88ADF82E205A680D97187B0A9239463E
:10C91000FFF766FFA3690DF10501587BFFF760FF84
:10C92000A3699A7A197A41EAC201DA7A9B7B41EAD1
:10C9300002119DF80620002B01F0190122F01902C6
:10C9400014BF02230123114363F342018DF8061043
:10C95000E36903B10C93334604AA09A92846FFF7FB
:10C960003DFF11B0F0BD90DF7047A5DF7047B5DF28
:10C97000704700007FB50023ADF80810ADF80A102D
:10C980006A4602A90646ADF80C30ADF80E300093A9
:10C99000ADF80430FFF7E7FF054600B3114B124C2A
:10C9A000E41AE408FCF784FD240444F0010403467F
:10C9B0000E4932462046FBF714F8BDF80020BDF8BA
:10C9C000023052EA030103D009492046FBF709F877
:10C9D000BDF804201AB107492046FAF7F9FF2846A6
:10C9E00004B070BD84EF0200ECEF0200740103009C
:10C9F000BE010300FD01030088B14FF0F71303608F
:10CA0000FB230371074A8161F723C3801723C0E921
:10CA10000232036141F6FB338382002070470E200F
:10CA2000704700BFFB1BF70030B1A1F11703E02BEB
:10CA300004D84180002070470E20704707207047BF
:10CA4000F7B58588012D0C461AD80388242B4FEAA8
:10CA5000C50700F0A28015D8112B79D0232B00F048
:10CA6000AF80102B42D03C44A37A4BB1E1882846DA
:10CA7000FFF77BFF002840F0AA804FF480736381AA
:10CA800003B0F0BD3A2B6CD0552BECD1C388CE1936
:10CA9000172BF18838BF17238B4228BF0B463381F1
:10CAA0000023B3722846FFF762FF60B1FCF700FD78
:10CAB000504B5149024651481B1ADB081B0443F0F6
:10CAC0000100FAF785FFF37A002BCCD1A369002B84
:10CAD000C9D040F67722ADF800203289ADF8025077
